{
  "_format": "hh-sol-artifact-1",
  "contractName": "TokenFaucet",
  "sourceName": "contracts/TokenFaucet.sol",
  "abi": [
    {
      "inputs": [
        {
          "internalType": "address",
          "name": "_token",
          "type": "address"
        }
      ],
      "stateMutability": "nonpayable",
      "type": "constructor"
    },
    {
      "inputs": [
        {
          "internalType": "address",
          "name": "owner",
          "type": "address"
        }
      ],
      "name": "OwnableInvalidOwner",
      "type": "error"
    },
    {
      "inputs": [
        {
          "internalType": "address",
          "name": "account",
          "type": "address"
        }
      ],
      "name": "OwnableUnauthorizedAccount",
      "type": "error"
    },
    {
      "inputs": [],
      "name": "ReentrancyGuardReentrantCall",
      "type": "error"
    },
    {
      "anonymous": false,
      "inputs": [
        {
          "indexed": true,
          "internalType": "address",
          "name": "previousOwner",
          "type": "address"
        },
        {
          "indexed": true,
          "internalType": "address",
          "name": "newOwner",
          "type": "address"
        }
      ],
      "name": "OwnershipTransferred",
      "type": "event"
    },
    {
      "anonymous": false,
      "inputs": [
        {
          "indexed": true,
          "internalType": "address",
          "name": "user",
          "type": "address"
        },
        {
          "indexed": false,
          "internalType": "uint256",
          "name": "amount",
          "type": "uint256"
        }
      ],
      "name": "TokensClaimed",
      "type": "event"
    },
    {
      "inputs": [],
      "name": "CLAIM_AMOUNT",
      "outputs": [
        {
          "internalType": "uint256",
          "name": "",
          "type": "uint256"
        }
      ],
      "stateMutability": "view",
      "type": "function"
    },
    {
      "inputs": [],
      "name": "COOLDOWN_PERIOD",
      "outputs": [
        {
          "internalType": "uint256",
          "name": "",
          "type": "uint256"
        }
      ],
      "stateMutability": "view",
      "type": "function"
    },
    {
      "inputs": [
        {
          "internalType": "address",
          "name": "user",
          "type": "address"
        }
      ],
      "name": "canClaim",
      "outputs": [
        {
          "internalType": "bool",
          "name": "",
          "type": "bool"
        }
      ],
      "stateMutability": "view",
      "type": "function"
    },
    {
      "inputs": [
        {
          "internalType": "address",
          "name": "",
          "type": "address"
        }
      ],
      "name": "claimCount",
      "outputs": [
        {
          "internalType": "uint256",
          "name": "",
          "type": "uint256"
        }
      ],
      "stateMutability": "view",
      "type": "function"
    },
    {
      "inputs": [],
      "name": "claimTokens",
      "outputs": [],
      "stateMutability": "nonpayable",
      "type": "function"
    },
    {
      "inputs": [
        {
          "internalType": "uint256",
          "name": "amount",
          "type": "uint256"
        }
      ],
      "name": "depositTokens",
      "outputs": [],
      "stateMutability": "nonpayable",
      "type": "function"
    },
    {
      "inputs": [
        {
          "internalType": "address",
          "name": "user",
          "type": "address"
        }
      ],
      "name": "getTimeUntilNextClaim",
      "outputs": [
        {
          "internalType": "uint256",
          "name": "",
          "type": "uint256"
        }
      ],
      "stateMutability": "view",
      "type": "function"
    },
    {
      "inputs": [
        {
          "internalType": "address",
          "name": "",
          "type": "address"
        }
      ],
      "name": "lastClaimTime",
      "outputs": [
        {
          "internalType": "uint256",
          "name": "",
          "type": "uint256"
        }
      ],
      "stateMutability": "view",
      "type": "function"
    },
    {
      "inputs": [],
      "name": "owner",
      "outputs": [
        {
          "internalType": "address",
          "name": "",
          "type": "address"
        }
      ],
      "stateMutability": "view",
      "type": "function"
    },
    {
      "inputs": [],
      "name": "renounceOwnership",
      "outputs": [],
      "stateMutability": "nonpayable",
      "type": "function"
    },
    {
      "inputs": [],
      "name": "token",
      "outputs": [
        {
          "internalType": "contract ERC20",
          "name": "",
          "type": "address"
        }
      ],
      "stateMutability": "view",
      "type": "function"
    },
    {
      "inputs": [
        {
          "internalType": "address",
          "name": "newOwner",
          "type": "address"
        }
      ],
      "name": "transferOwnership",
      "outputs": [],
      "stateMutability": "nonpayable",
      "type": "function"
    },
    {
      "inputs": [
        {
          "internalType": "uint256",
          "name": "amount",
          "type": "uint256"
        }
      ],
      "name": "withdrawTokens",
      "outputs": [],
      "stateMutability": "nonpayable",
      "type": "function"
    }
  ],
  "bytecode": "0x60a0604052346200004e576200001e62000018620000f2565b62000141565b604051610aae6200030182396080518181816103cc015281816104ea015281816106b801526108940152610aae90f35b600080fd5b634e487b7160e01b600052604160045260246000fd5b90601f01601f191681019081106001600160401b038211176200008b57604052565b62000053565b90620000a8620000a060405190565b928362000069565b565b6001600160a01b031690565b90565b620000c481620000aa565b036200004e57565b90505190620000a882620000b9565b906020828203126200004e57620000b691620000cc565b620000b662000daf80380380620001098162000091565b928339810190620000db565b620000b690620000aa906001600160a01b031682565b620000b69062000115565b620000b6906200012b565b62000157906200015133620001a8565b62000136565b608052565b620000b6620000b6620000b69290565b620000b660016200015c565b90600019905b9181191691161790565b906200019c620000b6620001a4926200015c565b825462000178565b9055565b620001b39062000205565b620000a8620001c16200016c565b600162000188565b620000aa620000b6620000b69290565b620000b690620001c9565b620001ef90620000aa565b9052565b602081019291620000a89190620001e4565b620002116000620001d9565b6200021c81620000aa565b6200022783620000aa565b14620002395750620000a890620002a6565b6200025f906200024860405190565b631e4fbdf760e01b815291829160048301620001f3565b0390fd5b620000b690620000aa565b620000b6905462000263565b906001600160a01b03906200017e565b906200029e620000b6620001a49262000136565b82546200027a565b620002ce620002c7620002ba60006200026e565b620001518460006200028a565b9162000136565b907f8be0079c531659141344cd1fd0a4f28419497f9722a3daafe3b4186f6b6457e0620002fa60405190565b600090a356fe6080604052600436101561001257600080fd5b60003560e01c8063270ef385146100e2578063315a095d146100dd57806348c54b9d146100d857806369c12cb7146100d35780636d07b7e5146100ce5780636e99d52f146100c9578063715018a6146100c45780638da5cb5b146100bf578063b77cf9c6146100ba578063bf3506c1146100b5578063dd49756e146100b0578063f2fde38b146100ab5763fc0c546a036100e7576103b3565b610382565b61036a565b61033d565b610322565b6102eb565b6102ba565b61029f565b610270565b610255565b61019e565b610181565b610127565b600080fd5b60009103126100e757565b6101046101046101049290565b90565b61010468056bc75e2d631000006100f7565b610104610107565b9052565b565b346100e7576101373660046100ec565b610153610142610119565b6040515b9182918290815260200190565b0390f35b805b036100e757565b9050359061012582610157565b906020828203126100e75761010491610160565b346100e75761019961019436600461016d565b610590565b604051005b346100e7576101ae3660046100ec565b610199610766565b6001600160a01b031690565b610159816101b6565b90503590610125826101c2565b906020828203126100e757610104916101cb565b610104906101b6906001600160a01b031682565b610104906101ec565b61010490610200565b9061021c90610209565b600052602052604060002090565b610104916008021c81565b90610104915461022a565b6000610250610104926003610212565b610235565b346100e75761015361014261026b3660046101d8565b610240565b346100e7576101536101426102863660046101d8565b610788565b610104620151806100f7565b61010461028b565b346100e7576102af3660046100ec565b610153610142610297565b346100e7576102ca3660046100ec565b610199610806565b610121906101b6565b60208101929161012591906102d2565b346100e7576102fb3660046100ec565b610153610306610821565b604051918291826102db565b6000610250610104926002610212565b346100e7576101536101426103383660046101d8565b610312565b346100e7576101536103586103533660046101d8565b61082b565b60405191829182901515815260200190565b346100e75761019961037d36600461016d565b6108ec565b346100e7576101996103953660046101d8565b61094f565b61012190610209565b602081019291610125919061039a565b346100e7576103c33660046100ec565b604051806101537f0000000000000000000000000000000000000000000000000000000000000000826103a3565b610125906103fd610958565b6104df565b634e487b7160e01b600052604160045260246000fd5b90601f01601f191681019081106001600160401b0382111761043957604052565b610402565b801515610159565b905051906101258261043e565b906020828203126100e75761010491610446565b916020610125929493610482604082019660008301906102d2565b0152565b6040513d6000823e3d90fd5b6020808252600f908201526e151c985b9cd9995c8819985a5b1959608a1b604082015260600190565b156104c257565b60405162461bcd60e51b8152806104db60048201610492565b0390fd5b60206105409161050e7f0000000000000000000000000000000000000000000000000000000000000000610209565b610516610821565b600061052160405190565b80968195829461053563a9059cbb60e01b90565b845260048401610467565b03925af1801561058b576101259160009161055c575b506104bb565b61057e915060203d602011610584575b6105768183610418565b810190610453565b38610556565b503d61056c565b610486565b610125906103f1565b6105a16109a9565b6105a9610668565b6101256109e9565b60208082526017908201527610d85b9b9bdd0818db185a5b481d1bdad95b9cc81e595d604a1b604082015260600190565b156105e957565b60405162461bcd60e51b8152806104db600482016105b1565b90600019905b9181191691161790565b90610622610104610629926100f7565b8254610602565b9055565b6101049081565b610104905461062d565b634e487b7160e01b600052601160045260246000fd5b60001981146106635760010190565b61063e565b6106796106743361082b565b6105e2565b61068e610687336002610212565b4290610612565b6106b361069c336003610212565b6106ad6106a882610634565b610654565b90610612565b6106dc7f0000000000000000000000000000000000000000000000000000000000000000610209565b6106e4610107565b9060206106f060405190565b91829063a9059cbb60e01b82528160008161070f883360048401610467565b03925af1801561058b5761072a9160009161055c57506104bb565b7f896e034966eaaf1adc54acc0f257056febbd300c9e47182cf761982cf1f5e43061076161075733610209565b9261014660405190565b0390a2565b610125610599565b9190820180921161066357565b9190820391821161066357565b6107918161082b565b6107c3576107bc6107ae6107a9610104936002610212565b610634565b6107b661028b565b9061076e565b429061077b565b5061010460006100f7565b6107d6610958565b6101256107f4565b6101b66101046101049290565b610104906107de565b61012561080160006107eb565b610a21565b6101256107ce565b610104906101b6565b610104905461080e565b6101046000610817565b6101046107ae6107a961084893610840600090565b506002610212565b42101590565b6101259061085a610958565b610889565b604090610482610125949695939661087f606084019860008501906102d2565b60208301906102d2565b6020610540916108b87f0000000000000000000000000000000000000000000000000000000000000000610209565b6108c130610209565b60006108cc60405190565b8096819582946108e06323b872dd60e01b90565b8452336004850161085f565b6101259061084e565b61012590610901610958565b61090b60006107eb565b610914816101b6565b61091d836101b6565b1461092c575061012590610a21565b6104db9061093960405190565b631e4fbdf760e01b8152918291600483016102db565b610125906108f5565b610960610821565b339061097461096e836101b6565b916101b6565b0361097c5750565b6104db9061098960405190565b63118cdaa760e01b8152918291600483016102db565b61010460026100f7565b6109b36001610634565b6109bb61099f565b9081146109cd57610125906001610612565b604051633ee5aeb560e01b8152600490fd5b61010460016100f7565b6101256109f46109df565b6001610612565b906001600160a01b0390610608565b90610a1a61010461062992610209565b82546109fb565b610a47610a41610a316000610817565b610a3c846000610a0a565b610209565b91610209565b907f8be0079c531659141344cd1fd0a4f28419497f9722a3daafe3b4186f6b6457e0610a7260405190565b600090a356fea2646970667358221220a82482ac9372bc5336785111b4188f0c4840562ecc10e4b16ce74684d7332f1a64736f6c63430008180033",
  "linkReferences": {},
  "deployedLinkReferences": {}
}